:100000000A128A11C82C00308A000408840A820768
:100010000034563420344F347534743420346F3403
:1000200066342034523461346E346734653421349C
:100030000034443456344D34203431342E3430348A
:0A00400000345634443443340034D5
:1009900083010A128A11F32E8030831603139F00FD
:1009A0002F30850007308900813083129F000800B6
:1009B000780877040319F72CFB01FB0AF81BE42CD9
:1009C0000310F70DF80DDD2C78087A02031DEA2CD0
:1009D00077087902031CF32C7708F9027808031CC6
:1009E000FA03FA020310F80CF70CFB0BE42C7A085C
:1009F000F8007908F7000800F400C73083120313E9
:100A00009F057408F2000310F20D0310F20D03109D
:100A1000720D9F040D30F300FB30F200F20B0E2D2F
:100A2000F30B0E2D132D831203131F151F19162DF3
:100A30001E08F100F00183161E08F0070318F10AE2
:100A40000800F401F501710870040319462DF60140
:100A5000F60AF11B2F2D0310F00DF10D282D0310B8
:100A6000F40DF50D71087302031D382D7008720224
:100A7000031C422D7008F2027108031CF303F302F9
:100A800074140310F10CF00CF60B2F2D7508F10007
:100A90007408F0000800A6250A128A110310210D1F
:100AA000220DA800A808031D5A2DF801F901FA012A
:100AB000FB010800A6250A128A1117300310A20CA8
:100AC000A10CA00CFF3E031D5E2D2008A300F9170A
:100AD000FA017808A4007908A5007A08A6008E30EB
:100AE000A701A802A81F812D2808803A8F3E031C69
:100AF000552D0310A70CA60CA50CA40CA80F792D3E
:100B00008F2D183028020318552DA80803198F2D92
:100B10000310A40DA50DA60DA70DA803852D230870
:100B200003199D2DA409A509A609A709A40A03195B
:100B3000A50A0319A60A0319A70A2708FB00260815
:100B4000FA002508F9002408F80008007808A00039
:100B50007908A1007A08A2000800F20007157208BF
:100B6000082EF20029260715720884000A128A113D
:100B700003200A128A110038031908007208840041
:100B80000A128A1103200A128A1108260A128A11EF
:100B9000F20AB42D831687018801831214300711DD
:100BA0008711F5007930F400F40BD42DF50BD42D1A
:100BB000D92D033029268800073087158711F500C5
:100BC0007D30F400F40BE22DF50BE22D29264230A6
:100BD00087158711F400F40BEB2D640029264230B1
:100BE00087158711F400F40BF32D640002302926D9
:100BF000880028308715871108260A128A110C30C0
:100C000008260A128A1119260A128A110630082E9D
:100C1000F1000D30F000F00B0B2E710E0F3929266C
:100C200088008715871171080F398800871587118B
:100C3000080029260130071108260A128A110330FC
:100C4000F3009730F200F20B232EF30B232E282E05
:100C500008008312031308002908F0002A08F10095
:100C60008E30F201F300F401AB267008A900710880
:100C7000AA007208AB0008002C08B2002D08B300CF
:100C80002E08B4000310330D340DB500B508031D54
:100C90004D2EAC01AD01AE0108002F08B2003008A6
:100CA000B3003108B4000310330D340DBA00BA0894
:100CB000031D5E2EAC01AD01AE0108003A087B3E7B
:100CC000B5072E08BA003108BA068030BA050730D9
:100CD000AD17B017B101B601B701B801B9002C1CAE
:100CE000792E2F08E9260A128A110318310A031DEA
:100CF000B8070310AE0CAD0CAC0C0310AF0DB00D6B
:100D0000B10DB90B6F2E0930B9002C1C8F2E2F0896
:100D1000E9260A128A110318310A031DB8070310C5
:100D2000AE0CAD0CAC0C0310B80CB70CB60CB90B78
:100D3000852E3608F0003708F1003808F200350833
:100D4000F3003A08F400AB267008AC007108AD005F
:100D50007208AE00080073080319B32E72087104FC
:100D60007004031DBC2EF001F101F2010800F30A2A
:100D70000310F20CF10CF00CFE3072050319CB2EAF
:100D8000B72EF30AF00A0319F10A0319F20A031045
:100D9000F20CF10CF00CFF3072050319D52EC12EA8
:100DA000F3030310F00DF10DF20DF11FD02E731CA3
:100DB000F1130310F30C7308F700F601F501750841
:100DC000F0047608F1047708F2047408031DF217A2
:100DD0000800B607300803110318300A031DB707CF
:100DE0003108031108000330BD008A30BC005630C2
:100DF000BB00BB0BF92EBC0BF92EBD0BF92E002F3F
:100E00000A128A11CC240A128A110A128A11CA25DE
:100E10000A128A110A128A1119260A128A1111302D
:100E20000A128A11B1250A128A110330BD008A30D4
:100E3000BC005630BB00BB0B1B2FBC0B1B2FBD0BCC
:100E40001B2F222F292F01300A128A11B1250A12D5
:100E50008A110A128A1119260A128A1100300A12FE
:100E60008A11FC240A128A1171088312BF007008CB
:100E7000BE003F08AA003E08A9000A128A112C26CB
:100E80000A128A112908AF002A08B0002B08B10005
:100E90003D30AC00EA30AD004130AE000A128A119C
:100EA0003C260A128A112C08F8002D08F9002E0899
:100EB000FA000A128A114B250A128A117908C90010
:100EC0007808C8000A30F000F1014908F30048082A
:100ED000F2000A128A1121250A128A117108C9002A
:100EE0007008C8000B304902B930031948020318D2
:100EF000232F0A30F700F8014908FA004808F900E2
:100F00000A128A11D8240A128A117808C1007708B7
:100F1000C0000A30F700F801F000F1014908F300C1
:100F20004808F2000A128A1121250A128A11710852
:100F3000FA007008F9000A128A11D8240A128A11DC
:100F40007808C3007708C2000A30F7006430F8015F
:100F5000F000F1014908F3004808F2000A128A1172
:100F600021250A128A117108FA007008F9000A1284
:100F70008A11D8240A128A117808C5007708C4009B
:100F80000A30F700E830F801F0000330F1004908BA
:100F9000F3004808F2000A128A1121250A128A1168
:100FA0007108FA007008F9000A128A11D8240A128E
:100FB0008A117808C7007708C600303E0A128A11E5
:100FC000AD250A128A114408303E0A128A11AD2555
:100FD0000A128A112E300A128A11AD250A128A11BC
:100FE0004208303E0A128A11AD250A128A114008C1
:100FF000303E0A128A11AD250A128A111930102FBB
:02400E00713F00
:00000001FF
